0100111217Z0000100  9999010110000055000006202603COMANDO PROVINCIALE VIGILI DEL FUOCO                                  S1963D8BE
0200111217Z0000200VMONGIELLO                     ANGELA                                                      2026032320260323 
0300111217Z0000300                                                             19640512MNGNGL64E52A893C03     03STS          0020VF
0400111217Z0000400089VA 003000305 WTL2000000072632300000024519999010100001951250000000000000000000000000004390000000331 001001001801
0500111217Z000050000000000011900000000590000000000000000000000N00000238000000000000999901010000000439000008768100000001080000099
0600111217Z0000600ISP. LOGISTICO-GEST. ESP. S.C.000015406800000448730000000000000000000000000211810503410806000000002843       00
0700111217Z0000700VIALE AGUGGIARI 249                               VARESE                                  21100         IT03NVA1
0800111217Z000080000019842000000165350000015406800000000000000000000000000000099990101000000000000000000000000000060002024050100000
1100111217Z000090000100000001653500000165350000000000000000000000000019571      S                                             
1100111217Z0001000118W6200000000000000000000000000000000000000000000000000      S                                             
1100111217Z0001100119W6400000000000000000000000000000000000000000000000000      S                                             
1100111217Z0001200129W6400000021910000002191000000000000000000000000000260      S                                             
1100111217Z0001300666W0300000000000000000000000000000000000000000000000000      S                                             
1100111217Z000140075056200000537810000053781000000000000000000000000006366      S                                             
1100111217Z0001500776AD900000499790000049979000000000000000000000000005573      S                                             
1100111217Z0001600888W0800000000000000000000000000000000000000000000000000      S                                             
1100111217Z0001700916F2Y00000103540000010354000000000000000000000000000947      S                                             
1100111217Z0001800975W6200000000000000000000000000000000000000000000000000      S                                             
1400111217Z00019000011  08800100000001653500000014551242000000040015C0 00                                                     
1400111217Z00020000013  00350100000001653500000000579000000000000000C0 00                                                     
1400111217Z00021000012  02500080000001653500000003307056800000009392C0 00                                                     
1400111217Z00022000013  00350100000000124010000000043000000000000000C1 00                                                     
1400111217Z00023000015  00000100000001653500000000000085000000014055C0 00                                                     
1400111217Z00024000011  08800100000000124010000001091242000000003001C1 00                                                     
1400111217Z00025001182  02500080000000000000000000000056800000000000C0 00                                                     
1400111217Z00026001183  00350100000000000000000000000000000000000000C1 00                                                     
1400111217Z00027001181  08800100000000000000000000000242000000000000C0 00                                                     
1400111217Z00028001185  00000100000000000000000000000085000000000000C0 00                                                     
1400111217Z00029001181  08800100000000000000000000000242000000000000C1 00                                                     
1400111217Z00030001183  00350100000000000000000000000000000000000000C0 00                                                     
1400111217Z00031001191  08800100000000000000000000000242000000000000C0 00                                                     
1400111217Z00032001191  08800100000000000000000000000242000000000000C1 00                                                     
1400111217Z00033001192  02500080000000000000000000000056800000000000C0 00                                                     
1400111217Z00034001193  00350100000000000000000000000000000000000000C0 00                                                     
1400111217Z00035001193  00350100000000000000000000000000000000000000C1 00                                                     
1400111217Z00036001195  00000100000000000000000000000085000000000000C0 00                                                     
1400111217Z00037001292  02500080000000021910000000044056800000000124C0 00                                                     
1400111217Z00038001293  00350100000000021910000000008000000000000000C0 00                                                     
1400111217Z00039001293  00350100000000001640000000001000000000000000C1 00                                                     
1400111217Z00040001291  08800100000000021910000000193242000000000530C0 00                                                     
1400111217Z00041001295  00000100000000021910000000000085000000000186C0 00                                                     
1400111217Z00042001291  08800100000000001640000000014242000000000040C1 00                                                     
1400111217Z00043006662  02500080000000000000000000000056800000000000C0 00                                                     
1400111217Z00044006663  00350100000000000000000000000000000000000000C1 00                                                     
1400111217Z00045006663  00350100000000000000000000000000000000000000C0 00                                                     
1400111217Z00046006661  08800100000000000000000000000242000000000000C1 00                                                     
1400111217Z00047006661  08800100000000000000000000000242000000000000C0 00                                                     
1400111217Z00048006665  00000100000000000000000000000085000000000000C0 00                                                     
1400111217Z00049007501  08800100000000040340000000355242000000000976C1 00                                                     
1400111217Z00050007505  00000100000000537810000000000085000000004571C0 00                                                     
1400111217Z00051007503  00350100000000537810000000188000000000000000C0 00                                                     
1400111217Z00052007502  02500080000000537810000001076056800000003055C0 00                                                     
1400111217Z00053007501  08800100000000537810000004733242000000013015C0 00                                                     
1400111217Z00054007503  00350100000000040340000000014000000000000000C1 00                                                     
1400111217Z00055007761  08800100000000499790000004398242000000012095C0 00                                                     
1400111217Z00056007762  02500080000000499790000001000056800000002839C0 00                                                     
1400111217Z00057007765  00000100000000499790000000000085000000004248C0 00                                                     
1400111217Z00058007763  00350100000000499790000000175000000000000000C0 00                                                     
1400111217Z00059008881  08800100000000000000000000000242000000000000C1 00                                                     
1400111217Z00060008883  00350100000000000000000000000000000000000000C1 00                                                     
1400111217Z00061008881  08800100000000000000000000000242000000000000C0 00                                                     
1400111217Z00062008883  00350100000000000000000000000000000000000000C0 00                                                     
1400111217Z00063008882  02500080000000000000000000000056800000000000C0 00                                                     
1400111217Z00064008885  00000100000000000000000000000085000000000000C0 00                                                     
1400111217Z00065009161  08800100000000103540000000911242000000002506C0 00                                                     
1400111217Z00066009165  00000100000000103540000000000085000000000880C0 00                                                     
1400111217Z00067009163  00350100000000103540000000036000000000000000C0 00                                                     
1400111217Z00068009751  08800100000000000000000000000242000000000000C0 00                                                     
1400111217Z00069009755  00000100000000000000000000000085000000000000C0 00                                                     
1400111217Z00070009751  08800100000000000000000000000242000000000000C1 00                                                     
1400111217Z00071009753  00350100000000000000000000000000000000000000C1 00                                                     
1400111217Z00072009752  02500080000000000000000000000056800000000000C0 00                                                     
1400111217Z00073009753  00350100000000000000000000000000000000000000C0 00                                                     
1700111217Z0007400666EN00210000002034202611S000             0000000000   0000000000   0000000000                    202603    
1700111217Z0007500A03EN00020000005528202611S000             0000000000   0000000000   0000000000                    202603    
1700111217Z0007600CC1EN00270000002201202611S000             0000000000   0000000000   0000000000                    202603    
1700111217Z0007700CC0EN00210000000914202611S000             0000000000   0000000000   0000000000                    202603    
1700111217Z0007800X23GN00010000030900203009S000             0000000000   0000000000   0000000000                    202010    
1700111217Z0007900B23GN00010000027000202906S000             0000026795OMF0000000205   00000000004900203587          202107    
2200111217Z0008000L682L682L682                L682                              0000000000000000010800000000005677808517000693001VF
2300111217Z00081000000000709403530020180104TC2026AA03J08C902000000192020260101202601310000000000000000000000176MI 351         
2300111217Z00082000000000709403530020180104TC2026AA03J08D902000000134420260101202601310000000000000000000000123MI 351         
2300111217Z00083000000000710439520020180103TS2023AA050019902000000048420231201202312310000000000000000000000045BA 351         
2400111217Z00084000000000709403531801052026AA03J08C9021  000000192000000001690000000465                                       
2400111217Z00085000000000709403531801052026AA03J08C9023  000000192000000000070000000000                                       
2400111217Z00086000000000709403531820022026AA03J08C9025  000000192000000000000000000163                                       
2400111217Z00087000000000709403531801052026AA03J08D9021  000000134400000001180000000325                                       
2400111217Z00088000000000709403531801052026AA03J08D9023  000000134400000000050000000000                                       
2400111217Z00089000000000709403531820022026AA03J08D9025  000000134400000000000000000114                                       
2400111217Z00090000000000710439521801052023AA0500199021  000000048400000000430000000117                                       
2400111217Z00091000000000710439521801052023AA0500199023  000000048400000000020000000000                                       
2400111217Z00092000000000710439521820022023AA0500199025  000000048400000000000000000041                                       
2700111217Z0009300IT03N0503410806000000002843                                                                                 
0100112622Z0000100  9999010110000039000004202603ACCADEMIA BELLE ARTI                                                  S194CD768
0200112622Z0000200VCIOFFI                        ANTONIO                                                     2026032320260323 
0300112622Z0000300                                                             19600516CFFNTN60E16G337G07     03STS          00411
0400112622Z0000400038MI 003000013 KA10000280074723300000025912032063000003067900000000000000000000000000000000000000000 001001001603
0500112622Z000050000000000006500000000000000000000000000000000N00000065000000000000999901010000194513000023123200000512670000099
0600112622Z0000600AFAM - DOCENTE I FASCIA       000024715600000779110000000000000000000000000714110623012783000090595114       00
0700112622Z0000700VIA SENECA 3                                      PARMA                                   43100         IT15KPR5
0800112622Z000080000022371960000186433000024715600000000000000000000000000000020011106200209020000000000000000000000002005080100000
1100112622Z000090000100000002866710000286671000000000000000000000000031963203206S                                             
1100112622Z0001000118KC000000000000000000000000000000000000000000000000000203206S                                             
1100112622Z0001100119KC000000000000000000000000000000000000000000000000000203206S                                             
1100112622Z0001200129KC000000032170000003217000000000000000000000000000358      S                                             
1100112622Z000130047700100000351920000035192000000000000000000000000003220203206S                                             
1100112622Z0001400666KC000000000000000000000000000000000000000000000000000      S                                             
1100112622Z000150075027100000554000000055400000000000000000000000000006177      S                                             
1100112622Z0001600777KC000000000000000000000000000000000000000000000000000      S                                             
1100112622Z0001700888KC000000000000000000000000000000000000000000000000000      S                                             
1100112622Z0001800975KC000000000000000000000000000000000000000000000000000      S                                             
1400112622Z00019000011  08800100000002866710000025227242000000069374C0 00                                                     
1400112622Z00020000013  00350100000002866710000001003000000000000000C0 00                                                     
1400112622Z00021000012  02500080000002866710000005733056800000016283C0 00                                                     
1400112622Z00022000015  00000100000002866710000000000085000000024367C0 00                                                     
1400112622Z00023001182  02500080000000000000000000000056800000000000C0 00                                                     
1400112622Z00024001181  08800100000000000000000000000242000000000000C0 00                                                     
1400112622Z00025001185  00000100000000000000000000000085000000000000C0 00                                                     
1400112622Z00026001183  00350100000000000000000000000000000000000000C0 00                                                     
1400112622Z00027001193  00350100000000000000000000000000000000000000C0 00                                                     
1400112622Z00028001192  02500080000000000000000000000056800000000000C0 00                                                     
1400112622Z00029001195  00000100000000000000000000000085000000000000C0 00                                                     
1400112622Z00030001191  08800100000000000000000000000242000000000000C0 00                                                     
1400112622Z00031001291  08800100000000032170000000283242000000000779C0 00                                                     
1400112622Z00032001292  02500080000000032170000000064056800000000183C0 00                                                     
1400112622Z00033001293  00350100000000032170000000011000000000000000C0 00                                                     
1400112622Z00034001295  00000100000000032170000000000085000000000273C0 00                                                     
1400112622Z00035004773  00350100000000351920000000123000000000000000C0 00                                                     
1400112622Z00036004775  00000100000000351920000000000085000000002991C0 00                                                     
1400112622Z00037004771  08800100000000351920000003097242000000008516C0 00                                                     
1400112622Z00038006663  00350100000000000000000000000000000000000000C0 00                                                     
1400112622Z00039006665  00000100000000000000000000000085000000000000C0 00                                                     
1400112622Z00040006662  02500080000000000000000000000056800000000000C0 00                                                     
1400112622Z00041006661  08800100000000000000000000000242000000000000C0 00                                                     
1400112622Z00042007505  00000100000000554000000000000085000000004709C0 00                                                     
1400112622Z00043007502  02500080000000554000000001108056800000003147C0 00                                                     
1400112622Z00044007501  08800100000000554000000004875242000000013407C0 00                                                     
1400112622Z00045007503  00350100000000554000000000194000000000000000C0 00                                                     
1400112622Z00046007773  00350100000000000000000000000000000000000000C0 00                                                     
1400112622Z00047007772  02500080000000000000000000000056800000000000C0 00                                                     
1400112622Z00048007775  00000100000000000000000000000085000000000000C0 00                                                     
1400112622Z00049007771  08800100000000000000000000000242000000000000C0 00                                                     
1400112622Z00050008882  02500080000000000000000000000056800000000000C0 00                                                     
1400112622Z00051008881  08800100000000000000000000000242000000000000C0 00                                                     
1400112622Z00052008883  00350100000000000000000000000000000000000000C0 00                                                     
1400112622Z00053008885  00000100000000000000000000000085000000000000C0 00                                                     
1400112622Z00054009752  02500080000000000000000000000056800000000000C0 00                                                     
1400112622Z00055009753  00350100000000000000000000000000000000000000C0 00                                                     
1400112622Z00056009751  08800100000000000000000000000242000000000000C0 00                                                     
1400112622Z00057009755  00000100000000000000000000000085000000000000C0 00                                                     
1700112622Z0005800A07EN00280000009242202611S000             0000000000   0000000000   0000000000                    202603    
1700112622Z0005900CC1EN00260000002633202611S000             0000000000   0000000000   0000000000                    202603    
1700112622Z0006000CC0EN00200000001094202611S000             0000000000   0000000000   0000000000                    202603    
1700112622Z0006100S6 SN00080000002431999901S000             0000000000   0000000000   0000000000                    202601    
2200112622Z0006200G337G337G337                G337                              00000000000000000000000000000031972047960009639671
0100463719Z0000100  9999010111000061000007202603COMANDO PROVINCIALE VIGILI DEL FUOCO                                  S1962FF2A
0200463719Z0000200VFAVETTA                       LORENZO                                                     2026032320260323 
0300463719Z0000300                                                             19671121FVTLNZ67S21L424P05     05STS          0020VF
0400463719Z0000400075TS 003000305 WOV5000000072632300000025559999010100001854440000041119000003166200000000000000000000 001001001801
0500463719Z000050000000000007700000000000000000000000000000000N00000084000000000000999901010000000000000014919700000000000000099
0600463719Z0000600VIGILE DEL FUOCO COORD. S.C.  000021974500000426420000000000000000000000000436990200802242000006093595       00
0700463719Z0000700VIA BRAMANTE 3                                    TRIESTE                                 34100         IT02UTS5
0800463719Z000080000017421120000145176000021974500000000000000000000000000000099990101000000000000000000000000000007002012050100000
1100463719Z000090000100000001451760000145176000000000000000000000000017183      S                                             
1100463719Z0001000118W5500000000000000000000000000000000000000000000000000      S                                             
1100463719Z0001100119W5500000000000000000000000000000000000000000000000000      S                                             
1100463719Z0001200129W5500000019790000001979000000000000000000000000000235      S                                             
1100463719Z000130052000300000020950000002095000000000000000000000000000248      S                                             
1100463719Z0001400666W0400000000000000000000000000000000000000000000000000      S                                             
1100463719Z0001500685WB700000758490000075849000000000000000000000000008457      S                                             
1100463719Z000160075055400000527690000052769000000000000000000000000006246      S                                             
1100463719Z0001700888W0600000000000000000000000000000000000000000000000000      S                                             
1100463719Z0001800916F0600000219540000021954000000000000000000000000002009      S                                             
1100463719Z0001900975W5500000000000000000000000000000000000000000000000000      S                                             
1400463719Z00020000011  08800100000001451760000012775242000000035133C0 00                                                     
1400463719Z00021000013  00350100000001451760000000508000000000000000C0 00                                                     
1400463719Z00022000013  00350100000000108880000000038000000000000000C1 00                                                     
1400463719Z00023000012  02500080000001451760000002904056800000008246C0 00                                                     
1400463719Z00024000015  00000100000001451760000000000085000000012340C0 00                                                     
1400463719Z00025000011  08800100000000108880000000958242000000002635C1 00                                                     
1400463719Z00026001185  00000100000000000000000000000085000000000000C0 00                                                     
1400463719Z00027001181  08800100000000000000000000000242000000000000C1 00                                                     
1400463719Z00028001183  00350100000000000000000000000000000000000000C1 00                                                     
1400463719Z00029001182  02500080000000000000000000000056800000000000C0 00                                                     
1400463719Z00030001183  00350100000000000000000000000000000000000000C0 00                                                     
1400463719Z00031001181  08800100000000000000000000000242000000000000C0 00                                                     
1400463719Z00032001191  08800100000000000000000000000242000000000000C0 00                                                     
1400463719Z00033001193  00350100000000000000000000000000000000000000C1 00                                                     
1400463719Z00034001192  02500080000000000000000000000056800000000000C0 00                                                     
1400463719Z00035001195  00000100000000000000000000000085000000000000C0 00                                                     
1400463719Z00036001191  08800100000000000000000000000242000000000000C1 00                                                     
1400463719Z00037001193  00350100000000000000000000000000000000000000C0 00                                                     
1400463719Z00038001291  08800100000000001480000000013242000000000036C1 00                                                     
1400463719Z00039001291  08800100000000019790000000174242000000000479C0 00                                                     
1400463719Z00040001293  00350100000000019790000000007000000000000000C0 00                                                     
1400463719Z00041001293  00350100000000001480000000001000000000000000C1 00                                                     
1400463719Z00042001292  02500080000000019790000000040056800000000112C0 00                                                     
1400463719Z00043001295  00000100000000019790000000000085000000000168C0 00                                                     
1400463719Z00044005203  00350100000000001570000000001000000000000000C1 00                                                     
1400463719Z00045005202  02500080000000020950000000042056800000000119C0 00                                                     
1400463719Z00046005203  00350100000000020950000000007000000000000000C0 00                                                     
1400463719Z00047005201  08800100000000001570000000014242000000000038C1 00                                                     
1400463719Z00048005205  00000100000000020950000000000085000000000178C0 00                                                     
1400463719Z00049005201  08800100000000020950000000184242000000000507C0 00                                                     
1400463719Z00050006661  08800100000000000000000000000242000000000000C1 00                                                     
1400463719Z00051006662  02500080000000000000000000000056800000000000C0 00                                                     
1400463719Z00052006665  00000100000000000000000000000085000000000000C0 00                                                     
1400463719Z00053006661  08800100000000000000000000000242000000000000C0 00                                                     
1400463719Z00054006663  00350100000000000000000000000000000000000000C0 00                                                     
1400463719Z00055006663  00350100000000000000000000000000000000000000C1 00                                                     
1400463719Z00056006853  00350100000000758490000000265000000000000000C0 00                                                     
1400463719Z00057006851  08800100000000758490000006675242000000018355C0 00                                                     
1400463719Z00058006852  02500080000000758490000001517056800000004308C0 00                                                     
1400463719Z00059006855  00000100000000758490000000000085000000006447C0 00                                                     
1400463719Z00060007501  08800100000000527690000004644242000000012770C0 00                                                     
1400463719Z00061007502  02500080000000527690000001055056800000002997C0 00                                                     
1400463719Z00062007505  00000100000000527690000000000085000000004485C0 00                                                     
1400463719Z00063007501  08800100000000039580000000348242000000000958C1 00                                                     
1400463719Z00064007503  00350100000000527690000000185000000000000000C0 00                                                     
1400463719Z00065007503  00350100000000039580000000014000000000000000C1 00                                                     
1400463719Z00066008881  08800100000000000000000000000242000000000000C0 00                                                     
1400463719Z00067008883  00350100000000000000000000000000000000000000C0 00                                                     
1400463719Z00068008883  00350100000000000000000000000000000000000000C1 00                                                     
1400463719Z00069008882  02500080000000000000000000000056800000000000C0 00                                                     
1400463719Z00070008881  08800100000000000000000000000242000000000000C1 00                                                     
1400463719Z00071008885  00000100000000000000000000000085000000000000C0 00                                                     
1400463719Z00072009161  08800100000000219540000001932242000000005313C0 00                                                     
1400463719Z00073009165  00000100000000219540000000000085000000001866C0 00                                                     
1400463719Z00074009163  00350100000000219540000000077000000000000000C0 00                                                     
1400463719Z00075009751  08800100000000000000000000000242000000000000C0 00                                                     
1400463719Z00076009752  02500080000000000000000000000056800000000000C0 00                                                     
1400463719Z00077009751  08800100000000000000000000000242000000000000C1 00                                                     
1400463719Z00078009755  00000100000000000000000000000085000000000000C0 00                                                     
1400463719Z00079009753  00350100000000000000000000000000000000000000C1 00                                                     
1400463719Z00080009753  00350100000000000000000000000000000000000000C0 00                                                     
1700463719Z0008100666EN00170000003303202611S000             0000000000   0000000000   0000000000                    202603    
1700463719Z0008200A05EN00300000005372202611S000             0000000000   0000000000   0000000000                    202603    
1700463719Z0008300CC1EN00240000002539202611S000             0000000000   0000000000   0000000000                    202603    
1700463719Z0008400CC0EN00200000001048202611S000             0000000000   0000000000   0000000000                    202603    
1700463719Z0008500IPPIN00050000015858202703S000             0000000000   0000000000   0000000000                    202304    
1700463719Z0008600SE3SN00070000001764999901S000             0000000000   0000000000   0000000000                    202510    
1700463719Z0008700SM SN00160000001235999901S000             0000000000   0000000000   0000000000                    202510    
2200463719Z0008800L424L424L424        L424    L424                              0000009457000000000000000000008000012000000757451VF
2300463719Z00089000000000708387080020180104TC2026AA030058902000000749220260101202601310000000000000000000000685TS 351         
2300463719Z00090000000000708387080020180104TC2026AA030059902000001349620260101202601310000000000000000000001235TS 351         
2300463719Z00091000000000708387080020180104TC2026AA03J088902000001610020260101202601310000000000000000000001473TS 351         
2300463719Z00092000000000708387080020180104TC2026AA03J089902000000322020260101202601310000000000000000000000294TS 351         
2300463719Z00093000000000710150320020180103TC2025AA01ST01902000000316220251101202511300020000000015810000000289TS 351         
2300463719Z00094000000000710150320020180103TC2025AA01ST02902000000178820251101202511300010000000017880000000163TS 351         
2400463719Z00095000000000708387081801052026AA0300589021  000000749200000006590000001813                                       
2400463719Z00096000000000708387081801052026AA0300589023  000000749200000000260000000000                                       
2400463719Z00097000000000708387081820022026AA0300589025  000000749200000000000000000637                                       
2400463719Z00098000000000708387081801052026AA0300599021  000001349600000011880000003266                                       
2400463719Z00099000000000708387081801052026AA0300599023  000001349600000000470000000000                                       
2400463719Z00100000000000708387081820022026AA0300599025  000001349600000000000000001147                                       
2400463719Z00101000000000708387081801052026AA03J0889021  000001610000000014170000003896                                       
2400463719Z00102000000000708387081801052026AA03J0889023  000001610000000000560000000000                                       
2400463719Z00103000000000708387081820022026AA03J0889025  000001610000000000000000001369                                       
2400463719Z00104000000000708387081801052026AA03J0899021  000000322000000002830000000779                                       
2400463719Z00105000000000708387081801052026AA03J0899023  000000322000000000110000000000                                       
2400463719Z00106000000000708387081820022026AA03J0899025  000000322000000000000000000274                                       
2400463719Z00107000000000710150321801052025AA01ST019021  000000316200000002780000000765                                       
2400463719Z00108000000000710150321801052025AA01ST019023  000000316200000000110000000000                                       
2400463719Z00109000000000710150321820022025AA01ST019025  000000316200000000000000000269                                       
2400463719Z00110000000000710150321801052025AA01ST029021  000000178800000001570000000433                                       
2400463719Z00111000000000710150321801052025AA01ST029023  000000178800000000060000000000                                       
2400463719Z00112000000000710150321820022025AA01ST029025  000000178800000000000000000152                                       
0100807345Z0000100  9999010110000055000005202603COMANDO PROVINCIALE VIGILI DEL FUOCO                                  S194B2D0B
0200807345Z0000200VSANNA                         MARCO                                                       2026032320260323 
0300807345Z0000300                                                             19680805SNNMRC68M05F205O03     03STS          0020VF
0400807345Z0000400038MI 003000309 WOC1000000072632300000025769999010100001996370000000000000000000000000000000000000000 001001001801
0500807345Z000050000000000007400000000000000000000000000000000N00000077000000000000999901010000000000000015697800000000000000099
0600807345Z0000600CAPO SQUADRA ESPERTO          000021589500000459080000000000000000000000000382080347501605CC0012461520       00
0700807345Z0000700VIA RONCHETTA 6/E                                 GORGONZOLA                              20064         IT28CMI1
0800807345Z000080000017909760000149248000021589500000000000000000000000000000099990101000000000000000000000000000003002023020100000
1100807345Z000090000100000001492480000149248000000000000000000000000017665      S                                             
1100807345Z0001000118W5700000000000000000000000000000000000000000000000000      S                                             
1100807345Z0001100119W5800000000000000000000000000000000000000000000000000      S                                             
1100807345Z0001200129W5800000020240000002024000000000000000000000000000239      S                                             
1100807345Z0001300666W0400000000000000000000000000000000000000000000000000      S                                             
1100807345Z0001400685WB800000887230000088723000000000000000000000000009893      S                                             
1100807345Z000150075055500000531770000053177000000000000000000000000006295      S                                             
1100807345Z0001600888W0500000000000000000000000000000000000000000000000000      S                                             
1100807345Z0001700916F0800000226270000022627000000000000000000000000002070      S                                             
1100807345Z0001800975W5800000000000000000000000000000000000000000000000000      S                                             
1400807345Z00019000011  08800100000001492480000013134242000000036118C0 00                                                     
1400807345Z00020000013  00350100000001492480000000522000000000000000C0 00                                                     
1400807345Z00021000013  00350100000000111940000000039000000000000000C1 00                                                     
1400807345Z00022000012  02500080000001492480000002985056800000008477C0 00                                                     
1400807345Z00023000015  00000100000001492480000000000085000000012686C0 00                                                     
1400807345Z00024000011  08800100000000111940000000985242000000002709C1 00                                                     
1400807345Z00025001183  00350100000000000000000000000000000000000000C0 00                                                     
1400807345Z00026001181  08800100000000000000000000000242000000000000C1 00                                                     
1400807345Z00027001183  00350100000000000000000000000000000000000000C1 00                                                     
1400807345Z00028001182  02500080000000000000000000000056800000000000C0 00                                                     
1400807345Z00029001181  08800100000000000000000000000242000000000000C0 00                                                     
1400807345Z00030001185  00000100000000000000000000000085000000000000C0 00                                                     
1400807345Z00031001193  00350100000000000000000000000000000000000000C1 00                                                     
1400807345Z00032001191  08800100000000000000000000000242000000000000C0 00                                                     
1400807345Z00033001195  00000100000000000000000000000085000000000000C0 00                                                     
1400807345Z00034001191  08800100000000000000000000000242000000000000C1 00                                                     
1400807345Z00035001193  00350100000000000000000000000000000000000000C0 00                                                     
1400807345Z00036001192  02500080000000000000000000000056800000000000C0 00                                                     
1400807345Z00037001291  08800100000000001520000000013242000000000037C1 00                                                     
1400807345Z00038001293  00350100000000020240000000007000000000000000C0 00                                                     
1400807345Z00039001293  00350100000000001520000000001000000000000000C1 00                                                     
1400807345Z00040001291  08800100000000020240000000178242000000000490C0 00                                                     
1400807345Z00041001295  00000100000000020240000000000085000000000172C0 00                                                     
1400807345Z00042001292  02500080000000020240000000040056800000000115C0 00                                                     
1400807345Z00043006661  08800100000000000000000000000242000000000000C1 00                                                     
1400807345Z00044006662  02500080000000000000000000000056800000000000C0 00                                                     
1400807345Z00045006665  00000100000000000000000000000085000000000000C0 00                                                     
1400807345Z00046006661  08800100000000000000000000000242000000000000C0 00                                                     
1400807345Z00047006663  00350100000000000000000000000000000000000000C0 00                                                     
1400807345Z00048006663  00350100000000000000000000000000000000000000C1 00                                                     
1400807345Z00049006853  00350100000000887230000000311000000000000000C0 00                                                     
1400807345Z00050006855  00000100000000887230000000000085000000007541C0 00                                                     
1400807345Z00051006852  02500080000000887230000001774056800000005039C0 00                                                     
1400807345Z00052006851  08800100000000887230000007808242000000021471C0 00                                                     
1400807345Z00053007501  08800100000000531770000004680242000000012869C0 00                                                     
1400807345Z00054007503  00350100000000531770000000186000000000000000C0 00                                                     
1400807345Z00055007505  00000100000000531770000000000085000000004520C0 00                                                     
1400807345Z00056007503  00350100000000039880000000014000000000000000C1 00                                                     
1400807345Z00057007501  08800100000000039880000000351242000000000965C1 00                                                     
1400807345Z00058007502  02500080000000531770000001064056800000003020C0 00                                                     
1400807345Z00059008881  08800100000000000000000000000242000000000000C1 00                                                     
1400807345Z00060008883  00350100000000000000000000000000000000000000C1 00                                                     
1400807345Z00061008882  02500080000000000000000000000056800000000000C0 00                                                     
1400807345Z00062008885  00000100000000000000000000000085000000000000C0 00                                                     
1400807345Z00063008881  08800100000000000000000000000242000000000000C0 00                                                     
1400807345Z00064008883  00350100000000000000000000000000000000000000C0 00                                                     
1400807345Z00065009163  00350100000000226270000000079000000000000000C0 00                                                     
1400807345Z00066009165  00000100000000226270000000000085000000001923C0 00                                                     
1400807345Z00067009161  08800100000000226270000001991242000000005476C0 00                                                     
1400807345Z00068009753  00350100000000000000000000000000000000000000C1 00                                                     
1400807345Z00069009753  00350100000000000000000000000000000000000000C0 00                                                     
1400807345Z00070009755  00000100000000000000000000000085000000000000C0 00                                                     
1400807345Z00071009752  02500080000000000000000000000056800000000000C0 00                                                     
1400807345Z00072009751  08800100000000000000000000000242000000000000C1 00                                                     
1400807345Z00073009751  08800100000000000000000000000242000000000000C0 00                                                     
1700807345Z0007400666EN00190000002180202611S000             0000000000   0000000000   0000000000                    202603    
1700807345Z0007500A03EN00300000006572202611S000             0000000000   0000000000   0000000000                    202603    
1700807345Z0007600CC1EN00260000002527202611S000             0000000000   0000000000   0000000000                    202603    
1700807345Z0007700CC0EN00220000001059202611S000             0000000000   0000000000   0000000000                    202603    
1700807345Z0007800SM6SN00060000001196999901S000             0000000000   0000000000   0000000000                    202601    
2200807345Z0007900E094E094E094                E094                              0000000000000000000000000000008000012000000758911VF
2700807345Z0008000IT28C0347501605CC0012461520        